{
  "contractName": "VehicleTelemetrics",
  "abi": [
    {
      "anonymous": false,
      "inputs": [
        {
          "indexed": true,
          "internalType": "address",
          "name": "previousOwner",
          "type": "address"
        },
        {
          "indexed": true,
          "internalType": "address",
          "name": "newOwner",
          "type": "address"
        },
        {
          "indexed": false,
          "internalType": "uint256",
          "name": "vehicleId",
          "type": "uint256"
        }
      ],
      "name": "VehicleSold",
      "type": "event"
    },
    {
      "inputs": [],
      "name": "telemetricCount",
      "outputs": [
        {
          "internalType": "uint256",
          "name": "",
          "type": "uint256"
        }
      ],
      "stateMutability": "view",
      "type": "function",
      "constant": true
    },
    {
      "inputs": [
        {
          "internalType": "uint256",
          "name": "",
          "type": "uint256"
        }
      ],
      "name": "telemetricData",
      "outputs": [
        {
          "internalType": "uint256",
          "name": "fromTimestamp",
          "type": "uint256"
        },
        {
          "internalType": "uint256",
          "name": "toTimestamp",
          "type": "uint256"
        },
        {
          "internalType": "uint256",
          "name": "fromSpeed",
          "type": "uint256"
        },
        {
          "internalType": "uint256",
          "name": "toSpeed",
          "type": "uint256"
        },
        {
          "internalType": "uint256",
          "name": "vehicleId",
          "type": "uint256"
        }
      ],
      "stateMutability": "view",
      "type": "function",
      "constant": true
    },
    {
      "inputs": [],
      "name": "vehicleCount",
      "outputs": [
        {
          "internalType": "uint256",
          "name": "",
          "type": "uint256"
        }
      ],
      "stateMutability": "view",
      "type": "function",
      "constant": true
    },
    {
      "inputs": [
        {
          "internalType": "uint256",
          "name": "",
          "type": "uint256"
        }
      ],
      "name": "vehicles",
      "outputs": [
        {
          "internalType": "uint256",
          "name": "id",
          "type": "uint256"
        },
        {
          "internalType": "string",
          "name": "registrationNumber",
          "type": "string"
        },
        {
          "internalType": "string",
          "name": "make",
          "type": "string"
        },
        {
          "internalType": "string",
          "name": "model",
          "type": "string"
        },
        {
          "internalType": "string",
          "name": "variant",
          "type": "string"
        },
        {
          "internalType": "uint256",
          "name": "price",
          "type": "uint256"
        },
        {
          "internalType": "address",
          "name": "owner",
          "type": "address"
        },
        {
          "internalType": "bool",
          "name": "forSale",
          "type": "bool"
        },
        {
          "internalType": "uint256",
          "name": "totalKilometers",
          "type": "uint256"
        },
        {
          "internalType": "uint256",
          "name": "totalLiters",
          "type": "uint256"
        },
        {
          "internalType": "uint256",
          "name": "milage",
          "type": "uint256"
        }
      ],
      "stateMutability": "view",
      "type": "function",
      "constant": true
    },
    {
      "inputs": [
        {
          "internalType": "string",
          "name": "_registrationNumber",
          "type": "string"
        },
        {
          "internalType": "string",
          "name": "_make",
          "type": "string"
        },
        {
          "internalType": "string",
          "name": "_model",
          "type": "string"
        },
        {
          "internalType": "string",
          "name": "_variant",
          "type": "string"
        },
        {
          "internalType": "uint256",
          "name": "_price",
          "type": "uint256"
        },
        {
          "internalType": "bool",
          "name": "_forSale",
          "type": "bool"
        },
        {
          "internalType": "uint256",
          "name": "_totalKilometers",
          "type": "uint256"
        },
        {
          "internalType": "uint256",
          "name": "_milage",
          "type": "uint256"
        }
      ],
      "name": "addVehicle",
      "outputs": [],
      "stateMutability": "nonpayable",
      "type": "function"
    },
    {
      "inputs": [
        {
          "internalType": "uint256",
          "name": "_vehicleId",
          "type": "uint256"
        },
        {
          "internalType": "uint256",
          "name": "_fromTimestamp",
          "type": "uint256"
        },
        {
          "internalType": "uint256",
          "name": "_toTimestamp",
          "type": "uint256"
        },
        {
          "internalType": "uint256",
          "name": "_fromSpeed",
          "type": "uint256"
        },
        {
          "internalType": "uint256",
          "name": "_toSpeed",
          "type": "uint256"
        }
      ],
      "name": "addTelemetricData",
      "outputs": [],
      "stateMutability": "nonpayable",
      "type": "function"
    },
    {
      "inputs": [
        {
          "internalType": "uint256",
          "name": "_vehicleId",
          "type": "uint256"
        },
        {
          "internalType": "bool",
          "name": "_forSale",
          "type": "bool"
        }
      ],
      "name": "setForSale",
      "outputs": [],
      "stateMutability": "nonpayable",
      "type": "function"
    },
    {
      "inputs": [
        {
          "internalType": "uint256",
          "name": "_vehicleId",
          "type": "uint256"
        }
      ],
      "name": "buyVehicle",
      "outputs": [],
      "stateMutability": "payable",
      "type": "function",
      "payable": true
    },
    {
      "inputs": [
        {
          "internalType": "address",
          "name": "_owner",
          "type": "address"
        }
      ],
      "name": "getVehiclesByOwnerAddress",
      "outputs": [
        {
          "components": [
            {
              "internalType": "uint256",
              "name": "id",
              "type": "uint256"
            },
            {
              "internalType": "string",
              "name": "registrationNumber",
              "type": "string"
            },
            {
              "internalType": "string",
              "name": "make",
              "type": "string"
            },
            {
              "internalType": "string",
              "name": "model",
              "type": "string"
            },
            {
              "internalType": "string",
              "name": "variant",
              "type": "string"
            },
            {
              "internalType": "uint256",
              "name": "price",
              "type": "uint256"
            },
            {
              "internalType": "address",
              "name": "owner",
              "type": "address"
            },
            {
              "internalType": "bool",
              "name": "forSale",
              "type": "bool"
            },
            {
              "internalType": "uint256",
              "name": "totalKilometers",
              "type": "uint256"
            },
            {
              "internalType": "uint256",
              "name": "totalLiters",
              "type": "uint256"
            },
            {
              "internalType": "uint256",
              "name": "milage",
              "type": "uint256"
            }
          ],
          "internalType": "struct VehicleTelemetrics.Vehicle[]",
          "name": "",
          "type": "tuple[]"
        }
      ],
      "stateMutability": "view",
      "type": "function",
      "constant": true
    },
    {
      "inputs": [],
      "name": "getForSaleVehicles",
      "outputs": [
        {
          "components": [
            {
              "internalType": "uint256",
              "name": "id",
              "type": "uint256"
            },
            {
              "internalType": "string",
              "name": "registrationNumber",
              "type": "string"
            },
            {
              "internalType": "string",
              "name": "make",
              "type": "string"
            },
            {
              "internalType": "string",
              "name": "model",
              "type": "string"
            },
            {
              "internalType": "string",
              "name": "variant",
              "type": "string"
            },
            {
              "internalType": "uint256",
              "name": "price",
              "type": "uint256"
            },
            {
              "internalType": "address",
              "name": "owner",
              "type": "address"
            },
            {
              "internalType": "bool",
              "name": "forSale",
              "type": "bool"
            },
            {
              "internalType": "uint256",
              "name": "totalKilometers",
              "type": "uint256"
            },
            {
              "internalType": "uint256",
              "name": "totalLiters",
              "type": "uint256"
            },
            {
              "internalType": "uint256",
              "name": "milage",
              "type": "uint256"
            }
          ],
          "internalType": "struct VehicleTelemetrics.Vehicle[]",
          "name": "",
          "type": "tuple[]"
        }
      ],
      "stateMutability": "view",
      "type": "function",
      "constant": true
    }
  ],
  "bytecode": "0x608060405234801561000f575f80fd5b506122f98061001d5f395ff3fe608060405260043610610090575f3560e01c8063ab4c84f611610058578063ab4c84f614610180578063afe618d5146101a8578063b8ba95fa146101d0578063c3542a8114610216578063f0a6c16b1461024057610090565b806336ce0920146100945780634b02f8fd146100b05780635bd4dead146100da5780638e4a31681461011a5780639970493714610156575b5f80fd5b6100ae60048036038101906100a99190611471565b610268565b005b3480156100bb575f80fd5b506100c46104c4565b6040516100d1919061174a565b60405180910390f35b3480156100e5575f80fd5b5061010060048036038101906100fb9190611471565b61089b565b604051610111959493929190611779565b60405180910390f35b348015610125575f80fd5b50610140600480360381019061013b91906117f4565b6108cd565b60405161014d919061174a565b60405180910390f35b348015610161575f80fd5b5061016a610ce5565b604051610177919061181f565b60405180910390f35b34801561018b575f80fd5b506101a660048036038101906101a1919061198e565b610ceb565b005b3480156101b3575f80fd5b506101ce60048036038101906101c99190611aaf565b610e83565b005b3480156101db575f80fd5b506101f660048036038101906101f19190611471565b611052565b60405161020d9b9a99989796959493929190611b8c565b60405180910390f35b348015610221575f80fd5b5061022a6112eb565b604051610237919061181f565b60405180910390f35b34801561024b575f80fd5b5061026660048036038101906102619190611c51565b6112f1565b005b5f808281526020019081526020015f2060060160149054906101000a900460ff166102c8576040517f08c379a00000000000000000000000000000000000000000000000000000000081526004016102bf90611cd9565b60405180910390fd5b5f341161030a576040517f08c379a000000000000000000000000000000000000000000000000000000000815260040161030190611d41565b60405180910390fd5b5f808281526020019081526020015f2060050154341015610360576040517f08c379a000000000000000000000000000000000000000000000000000000000815260040161035790611d41565b60405180910390fd5b5f805f8381526020019081526020015f206006015f9054906101000a900473ffffffffffffffffffffffffffffffffffffffff1690505f3390508173ffffffffffffffffffffffffffffffffffffffff166108fc3490811502906040515f60405180830381858888f193505050501580156103dd573d5f803e3d5ffd5b50335f808581526020019081526020015f206006015f6101000a81548173ffffffffffffffffffffffffffffffffffffffff021916908373ffffffffffffffffffffffffffffffffffffffff1602179055505f805f8581526020019081526020015f2060060160146101000a81548160ff0219169083151502179055508073ffffffffffffffffffffffffffffffffffffffff168273ffffffffffffffffffffffffffffffffffffffff167f68b418ca0dcd9d0e477ccabb37cc9a3e2bdf946e41c7761e4377805b818630ee856040516104b7919061181f565b60405180910390a3505050565b60605f60015467ffffffffffffffff8111156104e3576104e2611840565b5b60405190808252806020026020018201604052801561051c57816020015b6105096113c2565b8152602001906001900390816105015790505b5090505f80600190505b6001548111610892575f808281526020019081526020015f2060060160149054906101000a900460ff161561087f575f808281526020019081526020015f20604051806101600160405290815f820154815260200160018201805461058a90611d8c565b80601f01602080910402602001604051908101604052809291908181526020018280546105b690611d8c565b80156106015780601f106105d857610100808354040283529160200191610601565b820191905f5260205f20905b8154815290600101906020018083116105e457829003601f168201915b5050505050815260200160028201805461061a90611d8c565b80601f016020809104026020016040519081016040528092919081815260200182805461064690611d8c565b80156106915780601f1061066857610100808354040283529160200191610691565b820191905f5260205f20905b81548152906001019060200180831161067457829003601f168201915b505050505081526020016003820180546106aa90611d8c565b80601f01602080910402602001604051908101604052809291908181526020018280546106d690611d8c565b80156107215780601f106106f857610100808354040283529160200191610721565b820191905f5260205f20905b81548152906001019060200180831161070457829003601f168201915b5050505050815260200160048201805461073a90611d8c565b80601f016020809104026020016040519081016040528092919081815260200182805461076690611d8c565b80156107b15780601f10610788576101008083540402835291602001916107b1565b820191905f5260205f20905b81548152906001019060200180831161079457829003601f168201915b5050505050815260200160058201548152602001600682015f9054906101000a900473ffffffffffffffffffffffffffffffffffffffff1673ffffffffffffffffffffffffffffffffffffffff1673ffffffffffffffffffffffffffffffffffffffff1681526020016006820160149054906101000a900460ff16151515158152602001600782015481526020016008820154815260200160098201548152505083838151811061086557610864611dbc565b5b6020026020010181905250818061087b90611e16565b9250505b808061088a90611e16565b915050610526565b50819250505090565b6002602052805f5260405f205f91509050805f0154908060010154908060020154908060030154908060040154905085565b60605f60015467ffffffffffffffff8111156108ec576108eb611840565b5b60405190808252806020026020018201604052801561092557816020015b6109126113c2565b81526020019060019003908161090a5790505b5090505f80600190505b6001548111610cda578473ffffffffffffffffffffffffffffffffffffffff165f808381526020019081526020015f206006015f9054906101000a900473ffffffffffffffffffffffffffffffffffffffff1673ffffffffffffffffffffffffffffffffffffffff1603610cc7575f808281526020019081526020015f20604051806101600160405290815f82015481526020016001820180546109d290611d8c565b80601f01602080910402602001604051908101604052809291908181526020018280546109fe90611d8c565b8015610a495780601f10610a2057610100808354040283529160200191610a49565b820191905f5260205f20905b815481529060010190602001808311610a2c57829003601f168201915b50505050508152602001600282018054610a6290611d8c565b80601f0160208091040260200160405190810160405280929190818152602001828054610a8e90611d8c565b8015610ad95780601f10610ab057610100808354040283529160200191610ad9565b820191905f5260205f20905b815481529060010190602001808311610abc57829003601f168201915b50505050508152602001600382018054610af290611d8c565b80601f0160208091040260200160405190810160405280929190818152602001828054610b1e90611d8c565b8015610b695780601f10610b4057610100808354040283529160200191610b69565b820191905f5260205f20905b815481529060010190602001808311610b4c57829003601f168201915b50505050508152602001600482018054610b8290611d8c565b80601f0160208091040260200160405190810160405280929190818152602001828054610bae90611d8c565b8015610bf95780601f10610bd057610100808354040283529160200191610bf9565b820191905f5260205f20905b815481529060010190602001808311610bdc57829003601f168201915b5050505050815260200160058201548152602001600682015f9054906101000a900473ffffffffffffffffffffffffffffffffffffffff1673ffffffffffffffffffffffffffffffffffffffff1673ffffffffffffffffffffffffffffffffffffffff1681526020016006820160149054906101000a900460ff161515151581526020016007820154815260200160088201548152602001600982015481525050838381518110610cad57610cac611dbc565b5b60200260200101819052508180610cc390611e16565b9250505b8080610cd290611e16565b91505061092f565b508192505050919050565b60015481565b60015f815480929190610cfd90611e16565b919050555060405180610160016040528060015481526020018981526020018881526020018781526020018681526020018581526020013373ffffffffffffffffffffffffffffffffffffffff16815260200184151581526020018381526020018284610d6a9190611e8a565b8152602001828152505f8060015481526020019081526020015f205f820151815f01556020820151816001019081610da29190612057565b506040820151816002019081610db89190612057565b506060820151816003019081610dce9190612057565b506080820151816004019081610de49190612057565b5060a0820151816005015560c0820151816006015f6101000a81548173ffffffffffffffffffffffffffffffffffffffff021916908373ffffffffffffffffffffffffffffffffffffffff16021790555060e08201518160060160146101000a81548160ff0219169083151502179055506101008201518160070155610120820151816008015561014082015181600901559050505050505050505050565b845f808281526020019081526020015f206006015f9054906101000a900473ffffffffffffffffffffffffffffffffffffffff1673ffffffffffffffffffffffffffffffffffffffff163373ffffffffffffffffffffffffffffffffffffffff1614610f24576040517f08c379a0000000000000000000000000000000000000000000000000000000008152600401610f1b90612196565b60405180910390fd5b838510610f66576040517f08c379a0000000000000000000000000000000000000000000000000000000008152600401610f5d906121fe565b60405180910390fd5b60035f815480929190610f7890611e16565b91905055506040518060a001604052808681526020018581526020018481526020018381526020018781525060025f60035481526020019081526020015f205f820151815f0155602082015181600101556040820151816002015560608201518160030155608082015181600401559050505f8585610ff7919061221c565b90505f8160028587611009919061224f565b6110139190611e8a565b61101d9190612282565b9050805f808a81526020019081526020015f206007015f828254611041919061224f565b925050819055505050505050505050565b5f602052805f5260405f205f91509050805f01549080600101805461107690611d8c565b80601f01602080910402602001604051908101604052809291908181526020018280546110a290611d8c565b80156110ed5780601f106110c4576101008083540402835291602001916110ed565b820191905f5260205f20905b8154815290600101906020018083116110d057829003601f168201915b50505050509080600201805461110290611d8c565b80601f016020809104026020016040519081016040528092919081815260200182805461112e90611d8c565b80156111795780601f1061115057610100808354040283529160200191611179565b820191905f5260205f20905b81548152906001019060200180831161115c57829003601f168201915b50505050509080600301805461118e90611d8c565b80601f01602080910402602001604051908101604052809291908181526020018280546111ba90611d8c565b80156112055780601f106111dc57610100808354040283529160200191611205565b820191905f5260205f20905b8154815290600101906020018083116111e857829003601f168201915b50505050509080600401805461121a90611d8c565b80601f016020809104026020016040519081016040528092919081815260200182805461124690611d8c565b80156112915780601f1061126857610100808354040283529160200191611291565b820191905f5260205f20905b81548152906001019060200180831161127457829003601f168201915b505050505090806005015490806006015f9054906101000a900473ffffffffffffffffffffffffffffffffffffffff16908060060160149054906101000a900460ff1690806007015490806008015490806009015490508b565b60035481565b815f808281526020019081526020015f206006015f9054906101000a900473ffffffffffffffffffffffffffffffffffffffff1673ffffffffffffffffffffffffffffffffffffffff163373ffffffffffffffffffffffffffffffffffffffff1614611392576040517f08c379a000000000000000000000000000000000000000000000000000000000815260040161138990612196565b60405180910390fd5b815f808581526020019081526020015f2060060160146101000a81548160ff021916908315150217905550505050565b6040518061016001604052805f8152602001606081526020016060815260200160608152602001606081526020015f81526020015f73ffffffffffffffffffffffffffffffffffffffff1681526020015f151581526020015f81526020015f81526020015f81525090565b5f604051905090565b5f80fd5b5f80fd5b5f819050919050565b6114508161143e565b811461145a575f80fd5b50565b5f8135905061146b81611447565b92915050565b5f6020828403121561148657611485611436565b5b5f6114938482850161145d565b91505092915050565b5f81519050919050565b5f82825260208201905092915050565b5f819050602082019050919050565b6114ce8161143e565b82525050565b5f81519050919050565b5f82825260208201905092915050565b5f5b8381101561150b5780820151818401526020810190506114f0565b5f8484015250505050565b5f601f19601f8301169050919050565b5f611530826114d4565b61153a81856114de565b935061154a8185602086016114ee565b61155381611516565b840191505092915050565b5f73ffffffffffffffffffffffffffffffffffffffff82169050919050565b5f6115878261155e565b9050919050565b6115978161157d565b82525050565b5f8115159050919050565b6115b18161159d565b82525050565b5f61016083015f8301516115cd5f8601826114c5565b50602083015184820360208601526115e58282611526565b915050604083015184820360408601526115ff8282611526565b915050606083015184820360608601526116198282611526565b915050608083015184820360808601526116338282611526565b91505060a083015161164860a08601826114c5565b5060c083015161165b60c086018261158e565b5060e083015161166e60e08601826115a8565b506101008301516116836101008601826114c5565b506101208301516116986101208601826114c5565b506101408301516116ad6101408601826114c5565b508091505092915050565b5f6116c383836115b7565b905092915050565b5f602082019050919050565b5f6116e18261149c565b6116eb81856114a6565b9350836020820285016116fd856114b6565b805f5b85811015611738578484038952815161171985826116b8565b9450611724836116cb565b925060208a01995050600181019050611700565b50829750879550505050505092915050565b5f6020820190508181035f83015261176281846116d7565b905092915050565b6117738161143e565b82525050565b5f60a08201905061178c5f83018861176a565b611799602083018761176a565b6117a6604083018661176a565b6117b3606083018561176a565b6117c0608083018461176a565b9695505050505050565b6117d38161157d565b81146117dd575f80fd5b50565b5f813590506117ee816117ca565b92915050565b5f6020828403121561180957611808611436565b5b5f611816848285016117e0565b91505092915050565b5f6020820190506118325f83018461176a565b92915050565b5f80fd5b5f80fd5b7f4e487b71000000000000000000000000000000000000000000000000000000005f52604160045260245ffd5b61187682611516565b810181811067ffffffffffffffff8211171561189557611894611840565b5b80604052505050565b5f6118a761142d565b90506118b3828261186d565b919050565b5f67ffffffffffffffff8211156118d2576118d1611840565b5b6118db82611516565b9050602081019050919050565b828183375f83830152505050565b5f611908611903846118b8565b61189e565b9050828152602081018484840111156119245761192361183c565b5b61192f8482856118e8565b509392505050565b5f82601f83011261194b5761194a611838565b5b813561195b8482602086016118f6565b91505092915050565b61196d8161159d565b8114611977575f80fd5b50565b5f8135905061198881611964565b92915050565b5f805f805f805f80610100898b0312156119ab576119aa611436565b5b5f89013567ffffffffffffffff8111156119c8576119c761143a565b5b6119d48b828c01611937565b985050602089013567ffffffffffffffff8111156119f5576119f461143a565b5b611a018b828c01611937565b975050604089013567ffffffffffffffff811115611a2257611a2161143a565b5b611a2e8b828c01611937565b965050606089013567ffffffffffffffff811115611a4f57611a4e61143a565b5b611a5b8b828c01611937565b9550506080611a6c8b828c0161145d565b94505060a0611a7d8b828c0161197a565b93505060c0611a8e8b828c0161145d565b92505060e0611a9f8b828c0161145d565b9150509295985092959890939650565b5f805f805f60a08688031215611ac857611ac7611436565b5b5f611ad58882890161145d565b9550506020611ae68882890161145d565b9450506040611af78882890161145d565b9350506060611b088882890161145d565b9250506080611b198882890161145d565b9150509295509295909350565b5f82825260208201905092915050565b5f611b40826114d4565b611b4a8185611b26565b9350611b5a8185602086016114ee565b611b6381611516565b840191505092915050565b611b778161157d565b82525050565b611b868161159d565b82525050565b5f61016082019050611ba05f83018e61176a565b8181036020830152611bb2818d611b36565b90508181036040830152611bc6818c611b36565b90508181036060830152611bda818b611b36565b90508181036080830152611bee818a611b36565b9050611bfd60a083018961176a565b611c0a60c0830188611b6e565b611c1760e0830187611b7d565b611c2561010083018661176a565b611c3361012083018561176a565b611c4161014083018461176a565b9c9b505050505050505050505050565b5f8060408385031215611c6757611c66611436565b5b5f611c748582860161145d565b9250506020611c858582860161197a565b9150509250929050565b7f56656869636c65206973206e6f7420666f722073616c650000000000000000005f82015250565b5f611cc3601783611b26565b9150611cce82611c8f565b602082019050919050565b5f6020820190508181035f830152611cf081611cb7565b9050919050565b7f496e76616c6964207061796d656e7400000000000000000000000000000000005f82015250565b5f611d2b600f83611b26565b9150611d3682611cf7565b602082019050919050565b5f6020820190508181035f830152611d5881611d1f565b9050919050565b7f4e487b71000000000000000000000000000000000000000000000000000000005f52602260045260245ffd5b5f6002820490506001821680611da357607f821691505b602082108103611db657611db5611d5f565b5b50919050565b7f4e487b71000000000000000000000000000000000000000000000000000000005f52603260045260245ffd5b7f4e487b71000000000000000000000000000000000000000000000000000000005f52601160045260245ffd5b5f611e208261143e565b91507fffffffffffffffffffffffffffffffffffffffffffffffffffffffffffffffff8203611e5257611e51611de9565b5b600182019050919050565b7f4e487b71000000000000000000000000000000000000000000000000000000005f52601260045260245ffd5b5f611e948261143e565b9150611e9f8361143e565b925082611eaf57611eae611e5d565b5b828204905092915050565b5f819050815f5260205f209050919050565b5f6020601f8301049050919050565b5f82821b905092915050565b5f60088302611f167fffffffffffffffffffffffffffffffffffffffffffffffffffffffffffffffff82611edb565b611f208683611edb565b95508019841693508086168417925050509392505050565b5f819050919050565b5f611f5b611f56611f518461143e565b611f38565b61143e565b9050919050565b5f819050919050565b611f7483611f41565b611f88611f8082611f62565b848454611ee7565b825550505050565b5f90565b611f9c611f90565b611fa7818484611f6b565b505050565b5b81811015611fca57611fbf5f82611f94565b600181019050611fad565b5050565b601f82111561200f57611fe081611eba565b611fe984611ecc565b81016020851015611ff8578190505b61200c61200485611ecc565b830182611fac565b50505b505050565b5f82821c905092915050565b5f61202f5f1984600802612014565b1980831691505092915050565b5f6120478383612020565b9150826002028217905092915050565b612060826114d4565b67ffffffffffffffff81111561207957612078611840565b5b6120838254611d8c565b61208e828285611fce565b5f60209050601f8311600181146120bf575f84156120ad578287015190505b6120b7858261203c565b86555061211e565b601f1984166120cd86611eba565b5f5b828110156120f4578489015182556001820191506020850194506020810190506120cf565b86831015612111578489015161210d601f891682612020565b8355505b6001600288020188555050505b505050505050565b7f4f6e6c7920746865206f776e65722063616e20706572666f726d2074686973205f8201527f616374696f6e0000000000000000000000000000000000000000000000000000602082015250565b5f612180602683611b26565b915061218b82612126565b604082019050919050565b5f6020820190508181035f8301526121ad81612174565b9050919050565b7f496e76616c69642074696d657374616d707300000000000000000000000000005f82015250565b5f6121e8601283611b26565b91506121f3826121b4565b602082019050919050565b5f6020820190508181035f830152612215816121dc565b9050919050565b5f6122268261143e565b91506122318361143e565b925082820390508181111561224957612248611de9565b5b92915050565b5f6122598261143e565b91506122648361143e565b925082820190508082111561227c5761227b611de9565b5b92915050565b5f61228c8261143e565b91506122978361143e565b92508282026122a58161143e565b915082820484148315176122bc576122bb611de9565b5b509291505056fea264697066735822122088f39a73dc86051618f1530a2f160474b7b568060b02e51516db7f11b2265c2664736f6c63430008150033",
  "immutableReferences": {},
  "source": "// SPDX-License-Identifier: MIT\r\npragma solidity ^0.8.0;\r\n\r\ncontract VehicleTelemetrics {\r\n    struct TelemetricData {\r\n        uint256 fromTimestamp;\r\n        uint256 toTimestamp;\r\n        uint256 fromSpeed;\r\n        uint256 toSpeed;\r\n        uint256 vehicleId;\r\n    }\r\n\r\n    struct Vehicle {\r\n        uint256 id;\r\n        string registrationNumber;\r\n        string make;\r\n        string model;\r\n        string variant;\r\n        uint256 price;\r\n        address owner;\r\n        bool forSale;\r\n        uint256 totalKilometers;\r\n        uint256 totalLiters;\r\n        uint256 milage;\r\n    }\r\n\r\n    mapping(uint256 => Vehicle) public vehicles;\r\n    uint256 public vehicleCount;\r\n\r\n    mapping(uint256 => TelemetricData) public telemetricData;\r\n    uint256 public telemetricCount;\r\n\r\n    event VehicleSold(\r\n        address indexed previousOwner,\r\n        address indexed newOwner,\r\n        uint256 vehicleId\r\n    );\r\n\r\n    modifier onlyOwner(uint256 _vehicleId) {\r\n        require(\r\n            msg.sender == vehicles[_vehicleId].owner,\r\n            \"Only the owner can perform this action\"\r\n        );\r\n        _;\r\n    }\r\n\r\n    function addVehicle(\r\n        string memory _registrationNumber,\r\n        string memory _make,\r\n        string memory _model,\r\n        string memory _variant,\r\n        uint256 _price,\r\n        bool _forSale,\r\n        uint256 _totalKilometers,\r\n        uint256 _milage\r\n    ) external {\r\n        vehicleCount++;\r\n        vehicles[vehicleCount] = Vehicle({\r\n            id: vehicleCount,\r\n            registrationNumber: _registrationNumber,\r\n            make: _make,\r\n            model: _model,\r\n            variant: _variant,\r\n            price: _price,\r\n            owner: msg.sender,\r\n            forSale: _forSale,\r\n            totalKilometers: _totalKilometers,\r\n            totalLiters: _totalKilometers / _milage,\r\n            milage: _milage\r\n        });\r\n    }\r\n\r\n    function addTelemetricData(\r\n        uint256 _vehicleId,\r\n        uint256 _fromTimestamp,\r\n        uint256 _toTimestamp,\r\n        uint256 _fromSpeed,\r\n        uint256 _toSpeed\r\n    ) external onlyOwner(_vehicleId) {\r\n        require(_fromTimestamp < _toTimestamp, \"Invalid timestamps\");\r\n        telemetricCount++;\r\n        telemetricData[telemetricCount] = TelemetricData({\r\n            fromTimestamp: _fromTimestamp,\r\n            toTimestamp: _toTimestamp,\r\n            fromSpeed: _fromSpeed,\r\n            toSpeed: _toSpeed,\r\n            vehicleId: _vehicleId\r\n        });\r\n\r\n        uint256 timeDifference = _toTimestamp - _fromTimestamp;\r\n        uint256 distanceTraveled = ((_fromSpeed + _toSpeed) / 2) *\r\n            timeDifference;\r\n        vehicles[_vehicleId].totalKilometers += distanceTraveled;\r\n    }\r\n\r\n    function setForSale(\r\n        uint256 _vehicleId,\r\n        bool _forSale\r\n    ) external onlyOwner(_vehicleId) {\r\n        vehicles[_vehicleId].forSale = _forSale;\r\n    }\r\n\r\n    function buyVehicle(uint256 _vehicleId) external payable {\r\n        require(vehicles[_vehicleId].forSale, \"Vehicle is not for sale\");\r\n        require(msg.value > 0, \"Invalid payment\");\r\n        require(msg.value >= vehicles[_vehicleId].price, \"Invalid payment\");\r\n\r\n        address payable previousOwner = payable(vehicles[_vehicleId].owner);\r\n        address payable newOwner = payable(msg.sender);\r\n        previousOwner.transfer(msg.value);\r\n        vehicles[_vehicleId].owner = msg.sender;\r\n        vehicles[_vehicleId].forSale = false;\r\n        emit VehicleSold(previousOwner, newOwner, _vehicleId);\r\n    }\r\n\r\n    function getVehiclesByOwnerAddress(\r\n        address _owner\r\n    ) external view returns (Vehicle[] memory) {\r\n        Vehicle[] memory result = new Vehicle[](vehicleCount);\r\n        uint256 counter = 0;\r\n        for (uint256 i = 1; i <= vehicleCount; i++) {\r\n            if (vehicles[i].owner == _owner) {\r\n                result[counter] = vehicles[i];\r\n                counter++;\r\n            }\r\n        }\r\n        return result;\r\n    }\r\n\r\n    function getForSaleVehicles() external view returns (Vehicle[] memory) {\r\n        Vehicle[] memory result = new Vehicle[](vehicleCount);\r\n        uint256 counter = 0;\r\n        for (uint256 i = 1; i <= vehicleCount; i++) {\r\n            if (vehicles[i].forSale) {\r\n                result[counter] = vehicles[i];\r\n                counter++;\r\n            }\r\n        }\r\n        return result;\r\n    }\r\n}\r\n",
  "sourcePath": "D:\\BlockChain Projects\\vehicle telemetrics\\smart_contracts\\contracts\\VehicleTelematics.sol",
  "compiler": {
    "name": "solc",
    "version": "0.8.21+commit.d9974bed.Emscripten.clang"
  },
  "schemaVersion": "3.4.16",
  "updatedAt": "2024-04-09T13:16:46.493Z",
  "networkType": "ethereum",
  "devdoc": {
    "kind": "dev",
    "methods": {},
    "version": 1
  },
  "userdoc": {
    "kind": "user",
    "methods": {},
    "version": 1
  }
}