{
  "contractName": "VehicleTelemetrics",
  "abi": [
    {
      "anonymous": false,
      "inputs": [
        {
          "indexed": true,
          "internalType": "address",
          "name": "previousOwner",
          "type": "address"
        },
        {
          "indexed": true,
          "internalType": "address",
          "name": "newOwner",
          "type": "address"
        },
        {
          "indexed": false,
          "internalType": "uint256",
          "name": "vehicleId",
          "type": "uint256"
        }
      ],
      "name": "VehicleSold",
      "type": "event"
    },
    {
      "inputs": [],
      "name": "telemetricCount",
      "outputs": [
        {
          "internalType": "uint256",
          "name": "",
          "type": "uint256"
        }
      ],
      "stateMutability": "view",
      "type": "function",
      "constant": true
    },
    {
      "inputs": [
        {
          "internalType": "uint256",
          "name": "",
          "type": "uint256"
        }
      ],
      "name": "telemetricData",
      "outputs": [
        {
          "internalType": "uint256",
          "name": "fromTimestamp",
          "type": "uint256"
        },
        {
          "internalType": "uint256",
          "name": "toTimestamp",
          "type": "uint256"
        },
        {
          "internalType": "uint256",
          "name": "fromSpeed",
          "type": "uint256"
        },
        {
          "internalType": "uint256",
          "name": "toSpeed",
          "type": "uint256"
        },
        {
          "internalType": "uint256",
          "name": "vehicleId",
          "type": "uint256"
        }
      ],
      "stateMutability": "view",
      "type": "function",
      "constant": true
    },
    {
      "inputs": [],
      "name": "vehicleCount",
      "outputs": [
        {
          "internalType": "uint256",
          "name": "",
          "type": "uint256"
        }
      ],
      "stateMutability": "view",
      "type": "function",
      "constant": true
    },
    {
      "inputs": [
        {
          "internalType": "uint256",
          "name": "",
          "type": "uint256"
        }
      ],
      "name": "vehicles",
      "outputs": [
        {
          "internalType": "uint256",
          "name": "id",
          "type": "uint256"
        },
        {
          "internalType": "string",
          "name": "registrationNumber",
          "type": "string"
        },
        {
          "internalType": "string",
          "name": "make",
          "type": "string"
        },
        {
          "internalType": "string",
          "name": "model",
          "type": "string"
        },
        {
          "internalType": "string",
          "name": "variant",
          "type": "string"
        },
        {
          "internalType": "uint256",
          "name": "price",
          "type": "uint256"
        },
        {
          "internalType": "address",
          "name": "owner",
          "type": "address"
        },
        {
          "internalType": "bool",
          "name": "forSale",
          "type": "bool"
        },
        {
          "internalType": "uint256",
          "name": "totalKilometers",
          "type": "uint256"
        },
        {
          "internalType": "uint256",
          "name": "totalLiters",
          "type": "uint256"
        },
        {
          "internalType": "uint256",
          "name": "milage",
          "type": "uint256"
        }
      ],
      "stateMutability": "view",
      "type": "function",
      "constant": true
    },
    {
      "inputs": [
        {
          "internalType": "string",
          "name": "_registrationNumber",
          "type": "string"
        },
        {
          "internalType": "string",
          "name": "_make",
          "type": "string"
        },
        {
          "internalType": "string",
          "name": "_model",
          "type": "string"
        },
        {
          "internalType": "string",
          "name": "_variant",
          "type": "string"
        },
        {
          "internalType": "uint256",
          "name": "_price",
          "type": "uint256"
        },
        {
          "internalType": "bool",
          "name": "_forSale",
          "type": "bool"
        },
        {
          "internalType": "uint256",
          "name": "_totalKilometers",
          "type": "uint256"
        },
        {
          "internalType": "uint256",
          "name": "_milage",
          "type": "uint256"
        }
      ],
      "name": "addVehicle",
      "outputs": [],
      "stateMutability": "nonpayable",
      "type": "function"
    },
    {
      "inputs": [
        {
          "internalType": "uint256",
          "name": "_vehicleId",
          "type": "uint256"
        },
        {
          "internalType": "uint256",
          "name": "_fromTimestamp",
          "type": "uint256"
        },
        {
          "internalType": "uint256",
          "name": "_toTimestamp",
          "type": "uint256"
        },
        {
          "internalType": "uint256",
          "name": "_fromSpeed",
          "type": "uint256"
        },
        {
          "internalType": "uint256",
          "name": "_toSpeed",
          "type": "uint256"
        }
      ],
      "name": "addTelemetricData",
      "outputs": [],
      "stateMutability": "nonpayable",
      "type": "function"
    },
    {
      "inputs": [
        {
          "internalType": "uint256",
          "name": "_vehicleId",
          "type": "uint256"
        },
        {
          "internalType": "bool",
          "name": "_forSale",
          "type": "bool"
        }
      ],
      "name": "setForSale",
      "outputs": [],
      "stateMutability": "nonpayable",
      "type": "function"
    },
    {
      "inputs": [
        {
          "internalType": "uint256",
          "name": "_vehicleId",
          "type": "uint256"
        }
      ],
      "name": "buyVehicle",
      "outputs": [],
      "stateMutability": "payable",
      "type": "function",
      "payable": true
    },
    {
      "inputs": [
        {
          "internalType": "address",
          "name": "_owner",
          "type": "address"
        }
      ],
      "name": "getVehiclesByOwnerAddress",
      "outputs": [
        {
          "components": [
            {
              "internalType": "uint256",
              "name": "id",
              "type": "uint256"
            },
            {
              "internalType": "string",
              "name": "registrationNumber",
              "type": "string"
            },
            {
              "internalType": "string",
              "name": "make",
              "type": "string"
            },
            {
              "internalType": "string",
              "name": "model",
              "type": "string"
            },
            {
              "internalType": "string",
              "name": "variant",
              "type": "string"
            },
            {
              "internalType": "uint256",
              "name": "price",
              "type": "uint256"
            },
            {
              "internalType": "address",
              "name": "owner",
              "type": "address"
            },
            {
              "internalType": "bool",
              "name": "forSale",
              "type": "bool"
            },
            {
              "internalType": "uint256",
              "name": "totalKilometers",
              "type": "uint256"
            },
            {
              "internalType": "uint256",
              "name": "totalLiters",
              "type": "uint256"
            },
            {
              "internalType": "uint256",
              "name": "milage",
              "type": "uint256"
            }
          ],
          "internalType": "struct VehicleTelemetrics.Vehicle[]",
          "name": "",
          "type": "tuple[]"
        }
      ],
      "stateMutability": "view",
      "type": "function",
      "constant": true
    },
    {
      "inputs": [],
      "name": "getForSaleVehicles",
      "outputs": [
        {
          "components": [
            {
              "internalType": "uint256",
              "name": "id",
              "type": "uint256"
            },
            {
              "internalType": "string",
              "name": "registrationNumber",
              "type": "string"
            },
            {
              "internalType": "string",
              "name": "make",
              "type": "string"
            },
            {
              "internalType": "string",
              "name": "model",
              "type": "string"
            },
            {
              "internalType": "string",
              "name": "variant",
              "type": "string"
            },
            {
              "internalType": "uint256",
              "name": "price",
              "type": "uint256"
            },
            {
              "internalType": "address",
              "name": "owner",
              "type": "address"
            },
            {
              "internalType": "bool",
              "name": "forSale",
              "type": "bool"
            },
            {
              "internalType": "uint256",
              "name": "totalKilometers",
              "type": "uint256"
            },
            {
              "internalType": "uint256",
              "name": "totalLiters",
              "type": "uint256"
            },
            {
              "internalType": "uint256",
              "name": "milage",
              "type": "uint256"
            }
          ],
          "internalType": "struct VehicleTelemetrics.Vehicle[]",
          "name": "",
          "type": "tuple[]"
        }
      ],
      "stateMutability": "view",
      "type": "function",
      "constant": true
    },
    {
      "inputs": [],
      "name": "getAllVehicles",
      "outputs": [
        {
          "components": [
            {
              "internalType": "uint256",
              "name": "id",
              "type": "uint256"
            },
            {
              "internalType": "string",
              "name": "registrationNumber",
              "type": "string"
            },
            {
              "internalType": "string",
              "name": "make",
              "type": "string"
            },
            {
              "internalType": "string",
              "name": "model",
              "type": "string"
            },
            {
              "internalType": "string",
              "name": "variant",
              "type": "string"
            },
            {
              "internalType": "uint256",
              "name": "price",
              "type": "uint256"
            },
            {
              "internalType": "address",
              "name": "owner",
              "type": "address"
            },
            {
              "internalType": "bool",
              "name": "forSale",
              "type": "bool"
            },
            {
              "internalType": "uint256",
              "name": "totalKilometers",
              "type": "uint256"
            },
            {
              "internalType": "uint256",
              "name": "totalLiters",
              "type": "uint256"
            },
            {
              "internalType": "uint256",
              "name": "milage",
              "type": "uint256"
            }
          ],
          "internalType": "struct VehicleTelemetrics.Vehicle[]",
          "name": "",
          "type": "tuple[]"
        }
      ],
      "stateMutability": "view",
      "type": "function",
      "constant": true
    }
  ],
  "bytecode": "0x608060405234801561000f575f80fd5b506127c98061001d5f395ff3fe60806040526004361061009b575f3560e01c8063ab4c84f611610063578063ab4c84f61461018b578063afe618d5146101b3578063b8ba95fa146101db578063c3542a8114610221578063cb9d90d31461024b578063f0a6c16b146102755761009b565b806336ce09201461009f5780634b02f8fd146100bb5780635bd4dead146100e55780638e4a3168146101255780639970493714610161575b5f80fd5b6100b960048036038101906100b49190611941565b61029d565b005b3480156100c6575f80fd5b506100cf6104f9565b6040516100dc9190611c1a565b60405180910390f35b3480156100f0575f80fd5b5061010b60048036038101906101069190611941565b610928565b60405161011c959493929190611c49565b60405180910390f35b348015610130575f80fd5b5061014b60048036038101906101469190611cc4565b61095a565b6040516101589190611c1a565b60405180910390f35b34801561016c575f80fd5b50610175610e09565b6040516101829190611cef565b60405180910390f35b348015610196575f80fd5b506101b160048036038101906101ac9190611e5e565b610e0f565b005b3480156101be575f80fd5b506101d960048036038101906101d49190611f7f565b610fa7565b005b3480156101e6575f80fd5b5061020160048036038101906101fc9190611941565b611176565b6040516102189b9a9998979695949392919061205c565b60405180910390f35b34801561022c575f80fd5b5061023561140f565b6040516102429190611cef565b60405180910390f35b348015610256575f80fd5b5061025f611415565b60405161026c9190611c1a565b60405180910390f35b348015610280575f80fd5b5061029b60048036038101906102969190612121565b6117c1565b005b5f808281526020019081526020015f2060060160149054906101000a900460ff166102fd576040517f08c379a00000000000000000000000000000000000000000000000000000000081526004016102f4906121a9565b60405180910390fd5b5f341161033f576040517f08c379a000000000000000000000000000000000000000000000000000000000815260040161033690612211565b60405180910390fd5b5f808281526020019081526020015f2060050154341015610395576040517f08c379a000000000000000000000000000000000000000000000000000000000815260040161038c90612211565b60405180910390fd5b5f805f8381526020019081526020015f206006015f9054906101000a900473ffffffffffffffffffffffffffffffffffffffff1690505f3390508173ffffffffffffffffffffffffffffffffffffffff166108fc3490811502906040515f60405180830381858888f19350505050158015610412573d5f803e3d5ffd5b50335f808581526020019081526020015f206006015f6101000a81548173ffffffffffffffffffffffffffffffffffffffff021916908373ffffffffffffffffffffffffffffffffffffffff1602179055505f805f8581526020019081526020015f2060060160146101000a81548160ff0219169083151502179055508073ffffffffffffffffffffffffffffffffffffffff168273ffffffffffffffffffffffffffffffffffffffff167f68b418ca0dcd9d0e477ccabb37cc9a3e2bdf946e41c7761e4377805b818630ee856040516104ec9190611cef565b60405180910390a3505050565b60605f80600190505b6001548111610553575f808281526020019081526020015f2060060160149054906101000a900460ff161561054057818061053c9061225c565b9250505b808061054b9061225c565b915050610502565b505f8167ffffffffffffffff81111561056f5761056e611d10565b5b6040519080825280602002602001820160405280156105a857816020015b610595611892565b81526020019060019003908161058d5790505b5090505f80600190505b600154811161091e575f808281526020019081526020015f2060060160149054906101000a900460ff161561090b575f808281526020019081526020015f20604051806101600160405290815f8201548152602001600182018054610616906122d0565b80601f0160208091040260200160405190810160405280929190818152602001828054610642906122d0565b801561068d5780601f106106645761010080835404028352916020019161068d565b820191905f5260205f20905b81548152906001019060200180831161067057829003601f168201915b505050505081526020016002820180546106a6906122d0565b80601f01602080910402602001604051908101604052809291908181526020018280546106d2906122d0565b801561071d5780601f106106f45761010080835404028352916020019161071d565b820191905f5260205f20905b81548152906001019060200180831161070057829003601f168201915b50505050508152602001600382018054610736906122d0565b80601f0160208091040260200160405190810160405280929190818152602001828054610762906122d0565b80156107ad5780601f10610784576101008083540402835291602001916107ad565b820191905f5260205f20905b81548152906001019060200180831161079057829003601f168201915b505050505081526020016004820180546107c6906122d0565b80601f01602080910402602001604051908101604052809291908181526020018280546107f2906122d0565b801561083d5780601f106108145761010080835404028352916020019161083d565b820191905f5260205f20905b81548152906001019060200180831161082057829003601f168201915b5050505050815260200160058201548152602001600682015f9054906101000a900473ffffffffffffffffffffffffffffffffffffffff1673ffffffffffffffffffffffffffffffffffffffff1673ffffffffffffffffffffffffffffffffffffffff1681526020016006820160149054906101000a900460ff1615151515815260200160078201548152602001600882015481526020016009820154815250508383815181106108f1576108f0612300565b5b602002602001018190525081806109079061225c565b9250505b80806109169061225c565b9150506105b2565b5081935050505090565b6002602052805f5260405f205f91509050805f0154908060010154908060020154908060030154908060040154905085565b60605f80600190505b60015481116109f3578373ffffffffffffffffffffffffffffffffffffffff165f808381526020019081526020015f206006015f9054906101000a900473ffffffffffffffffffffffffffffffffffffffff1673ffffffffffffffffffffffffffffffffffffffff16036109e05781806109dc9061225c565b9250505b80806109eb9061225c565b915050610963565b505f8167ffffffffffffffff811115610a0f57610a0e611d10565b5b604051908082528060200260200182016040528015610a4857816020015b610a35611892565b815260200190600190039081610a2d5790505b5090505f80600190505b6001548111610dfd578573ffffffffffffffffffffffffffffffffffffffff165f808381526020019081526020015f206006015f9054906101000a900473ffffffffffffffffffffffffffffffffffffffff1673ffffffffffffffffffffffffffffffffffffffff1603610dea575f808281526020019081526020015f20604051806101600160405290815f8201548152602001600182018054610af5906122d0565b80601f0160208091040260200160405190810160405280929190818152602001828054610b21906122d0565b8015610b6c5780601f10610b4357610100808354040283529160200191610b6c565b820191905f5260205f20905b815481529060010190602001808311610b4f57829003601f168201915b50505050508152602001600282018054610b85906122d0565b80601f0160208091040260200160405190810160405280929190818152602001828054610bb1906122d0565b8015610bfc5780601f10610bd357610100808354040283529160200191610bfc565b820191905f5260205f20905b815481529060010190602001808311610bdf57829003601f168201915b50505050508152602001600382018054610c15906122d0565b80601f0160208091040260200160405190810160405280929190818152602001828054610c41906122d0565b8015610c8c5780601f10610c6357610100808354040283529160200191610c8c565b820191905f5260205f20905b815481529060010190602001808311610c6f57829003601f168201915b50505050508152602001600482018054610ca5906122d0565b80601f0160208091040260200160405190810160405280929190818152602001828054610cd1906122d0565b8015610d1c5780601f10610cf357610100808354040283529160200191610d1c565b820191905f5260205f20905b815481529060010190602001808311610cff57829003601f168201915b5050505050815260200160058201548152602001600682015f9054906101000a900473ffffffffffffffffffffffffffffffffffffffff1673ffffffffffffffffffffffffffffffffffffffff1673ffffffffffffffffffffffffffffffffffffffff1681526020016006820160149054906101000a900460ff161515151581526020016007820154815260200160088201548152602001600982015481525050838381518110610dd057610dcf612300565b5b60200260200101819052508180610de69061225c565b9250505b8080610df59061225c565b915050610a52565b50819350505050919050565b60015481565b60015f815480929190610e219061225c565b919050555060405180610160016040528060015481526020018981526020018881526020018781526020018681526020018581526020013373ffffffffffffffffffffffffffffffffffffffff16815260200184151581526020018381526020018284610e8e919061235a565b8152602001828152505f8060015481526020019081526020015f205f820151815f01556020820151816001019081610ec69190612527565b506040820151816002019081610edc9190612527565b506060820151816003019081610ef29190612527565b506080820151816004019081610f089190612527565b5060a0820151816005015560c0820151816006015f6101000a81548173ffffffffffffffffffffffffffffffffffffffff021916908373ffffffffffffffffffffffffffffffffffffffff16021790555060e08201518160060160146101000a81548160ff0219169083151502179055506101008201518160070155610120820151816008015561014082015181600901559050505050505050505050565b845f808281526020019081526020015f206006015f9054906101000a900473ffffffffffffffffffffffffffffffffffffffff1673ffffffffffffffffffffffffffffffffffffffff163373ffffffffffffffffffffffffffffffffffffffff1614611048576040517f08c379a000000000000000000000000000000000000000000000000000000000815260040161103f90612666565b60405180910390fd5b83851061108a576040517f08c379a0000000000000000000000000000000000000000000000000000000008152600401611081906126ce565b60405180910390fd5b60035f81548092919061109c9061225c565b91905055506040518060a001604052808681526020018581526020018481526020018381526020018781525060025f60035481526020019081526020015f205f820151815f0155602082015181600101556040820151816002015560608201518160030155608082015181600401559050505f858561111b91906126ec565b90505f816002858761112d919061271f565b611137919061235a565b6111419190612752565b9050805f808a81526020019081526020015f206007015f828254611165919061271f565b925050819055505050505050505050565b5f602052805f5260405f205f91509050805f01549080600101805461119a906122d0565b80601f01602080910402602001604051908101604052809291908181526020018280546111c6906122d0565b80156112115780601f106111e857610100808354040283529160200191611211565b820191905f5260205f20905b8154815290600101906020018083116111f457829003601f168201915b505050505090806002018054611226906122d0565b80601f0160208091040260200160405190810160405280929190818152602001828054611252906122d0565b801561129d5780601f106112745761010080835404028352916020019161129d565b820191905f5260205f20905b81548152906001019060200180831161128057829003601f168201915b5050505050908060030180546112b2906122d0565b80601f01602080910402602001604051908101604052809291908181526020018280546112de906122d0565b80156113295780601f1061130057610100808354040283529160200191611329565b820191905f5260205f20905b81548152906001019060200180831161130c57829003601f168201915b50505050509080600401805461133e906122d0565b80601f016020809104026020016040519081016040528092919081815260200182805461136a906122d0565b80156113b55780601f1061138c576101008083540402835291602001916113b5565b820191905f5260205f20905b81548152906001019060200180831161139857829003601f168201915b505050505090806005015490806006015f9054906101000a900473ffffffffffffffffffffffffffffffffffffffff16908060060160149054906101000a900460ff1690806007015490806008015490806009015490508b565b60035481565b60605f60015467ffffffffffffffff81111561143457611433611d10565b5b60405190808252806020026020018201604052801561146d57816020015b61145a611892565b8152602001906001900390816114525790505b5090505f600190505b60015481116117b9575f808281526020019081526020015f20604051806101600160405290815f82015481526020016001820180546114b4906122d0565b80601f01602080910402602001604051908101604052809291908181526020018280546114e0906122d0565b801561152b5780601f106115025761010080835404028352916020019161152b565b820191905f5260205f20905b81548152906001019060200180831161150e57829003601f168201915b50505050508152602001600282018054611544906122d0565b80601f0160208091040260200160405190810160405280929190818152602001828054611570906122d0565b80156115bb5780601f10611592576101008083540402835291602001916115bb565b820191905f5260205f20905b81548152906001019060200180831161159e57829003601f168201915b505050505081526020016003820180546115d4906122d0565b80601f0160208091040260200160405190810160405280929190818152602001828054611600906122d0565b801561164b5780601f106116225761010080835404028352916020019161164b565b820191905f5260205f20905b81548152906001019060200180831161162e57829003601f168201915b50505050508152602001600482018054611664906122d0565b80601f0160208091040260200160405190810160405280929190818152602001828054611690906122d0565b80156116db5780601f106116b2576101008083540402835291602001916116db565b820191905f5260205f20905b8154815290600101906020018083116116be57829003601f168201915b5050505050815260200160058201548152602001600682015f9054906101000a900473ffffffffffffffffffffffffffffffffffffffff1673ffffffffffffffffffffffffffffffffffffffff1673ffffffffffffffffffffffffffffffffffffffff1681526020016006820160149054906101000a900460ff1615151515815260200160078201548152602001600882015481526020016009820154815250508260018361178a91906126ec565b8151811061179b5761179a612300565b5b602002602001018190525080806117b19061225c565b915050611476565b508091505090565b815f808281526020019081526020015f206006015f9054906101000a900473ffffffffffffffffffffffffffffffffffffffff1673ffffffffffffffffffffffffffffffffffffffff163373ffffffffffffffffffffffffffffffffffffffff1614611862576040517f08c379a000000000000000000000000000000000000000000000000000000000815260040161185990612666565b60405180910390fd5b815f808581526020019081526020015f2060060160146101000a81548160ff021916908315150217905550505050565b6040518061016001604052805f8152602001606081526020016060815260200160608152602001606081526020015f81526020015f73ffffffffffffffffffffffffffffffffffffffff1681526020015f151581526020015f81526020015f81526020015f81525090565b5f604051905090565b5f80fd5b5f80fd5b5f819050919050565b6119208161190e565b811461192a575f80fd5b50565b5f8135905061193b81611917565b92915050565b5f6020828403121561195657611955611906565b5b5f6119638482850161192d565b91505092915050565b5f81519050919050565b5f82825260208201905092915050565b5f819050602082019050919050565b61199e8161190e565b82525050565b5f81519050919050565b5f82825260208201905092915050565b5f5b838110156119db5780820151818401526020810190506119c0565b5f8484015250505050565b5f601f19601f8301169050919050565b5f611a00826119a4565b611a0a81856119ae565b9350611a1a8185602086016119be565b611a23816119e6565b840191505092915050565b5f73ffffffffffffffffffffffffffffffffffffffff82169050919050565b5f611a5782611a2e565b9050919050565b611a6781611a4d565b82525050565b5f8115159050919050565b611a8181611a6d565b82525050565b5f61016083015f830151611a9d5f860182611995565b5060208301518482036020860152611ab582826119f6565b91505060408301518482036040860152611acf82826119f6565b91505060608301518482036060860152611ae982826119f6565b91505060808301518482036080860152611b0382826119f6565b91505060a0830151611b1860a0860182611995565b5060c0830151611b2b60c0860182611a5e565b5060e0830151611b3e60e0860182611a78565b50610100830151611b53610100860182611995565b50610120830151611b68610120860182611995565b50610140830151611b7d610140860182611995565b508091505092915050565b5f611b938383611a87565b905092915050565b5f602082019050919050565b5f611bb18261196c565b611bbb8185611976565b935083602082028501611bcd85611986565b805f5b85811015611c085784840389528151611be98582611b88565b9450611bf483611b9b565b925060208a01995050600181019050611bd0565b50829750879550505050505092915050565b5f6020820190508181035f830152611c328184611ba7565b905092915050565b611c438161190e565b82525050565b5f60a082019050611c5c5f830188611c3a565b611c696020830187611c3a565b611c766040830186611c3a565b611c836060830185611c3a565b611c906080830184611c3a565b9695505050505050565b611ca381611a4d565b8114611cad575f80fd5b50565b5f81359050611cbe81611c9a565b92915050565b5f60208284031215611cd957611cd8611906565b5b5f611ce684828501611cb0565b91505092915050565b5f602082019050611d025f830184611c3a565b92915050565b5f80fd5b5f80fd5b7f4e487b71000000000000000000000000000000000000000000000000000000005f52604160045260245ffd5b611d46826119e6565b810181811067ffffffffffffffff82111715611d6557611d64611d10565b5b80604052505050565b5f611d776118fd565b9050611d838282611d3d565b919050565b5f67ffffffffffffffff821115611da257611da1611d10565b5b611dab826119e6565b9050602081019050919050565b828183375f83830152505050565b5f611dd8611dd384611d88565b611d6e565b905082815260208101848484011115611df457611df3611d0c565b5b611dff848285611db8565b509392505050565b5f82601f830112611e1b57611e1a611d08565b5b8135611e2b848260208601611dc6565b91505092915050565b611e3d81611a6d565b8114611e47575f80fd5b50565b5f81359050611e5881611e34565b92915050565b5f805f805f805f80610100898b031215611e7b57611e7a611906565b5b5f89013567ffffffffffffffff811115611e9857611e9761190a565b5b611ea48b828c01611e07565b985050602089013567ffffffffffffffff811115611ec557611ec461190a565b5b611ed18b828c01611e07565b975050604089013567ffffffffffffffff811115611ef257611ef161190a565b5b611efe8b828c01611e07565b965050606089013567ffffffffffffffff811115611f1f57611f1e61190a565b5b611f2b8b828c01611e07565b9550506080611f3c8b828c0161192d565b94505060a0611f4d8b828c01611e4a565b93505060c0611f5e8b828c0161192d565b92505060e0611f6f8b828c0161192d565b9150509295985092959890939650565b5f805f805f60a08688031215611f9857611f97611906565b5b5f611fa58882890161192d565b9550506020611fb68882890161192d565b9450506040611fc78882890161192d565b9350506060611fd88882890161192d565b9250506080611fe98882890161192d565b9150509295509295909350565b5f82825260208201905092915050565b5f612010826119a4565b61201a8185611ff6565b935061202a8185602086016119be565b612033816119e6565b840191505092915050565b61204781611a4d565b82525050565b61205681611a6d565b82525050565b5f610160820190506120705f83018e611c3a565b8181036020830152612082818d612006565b90508181036040830152612096818c612006565b905081810360608301526120aa818b612006565b905081810360808301526120be818a612006565b90506120cd60a0830189611c3a565b6120da60c083018861203e565b6120e760e083018761204d565b6120f5610100830186611c3a565b612103610120830185611c3a565b612111610140830184611c3a565b9c9b505050505050505050505050565b5f806040838503121561213757612136611906565b5b5f6121448582860161192d565b925050602061215585828601611e4a565b9150509250929050565b7f56656869636c65206973206e6f7420666f722073616c650000000000000000005f82015250565b5f612193601783611ff6565b915061219e8261215f565b602082019050919050565b5f6020820190508181035f8301526121c081612187565b9050919050565b7f496e76616c6964207061796d656e7400000000000000000000000000000000005f82015250565b5f6121fb600f83611ff6565b9150612206826121c7565b602082019050919050565b5f6020820190508181035f830152612228816121ef565b9050919050565b7f4e487b71000000000000000000000000000000000000000000000000000000005f52601160045260245ffd5b5f6122668261190e565b91507fffffffffffffffffffffffffffffffffffffffffffffffffffffffffffffffff82036122985761229761222f565b5b600182019050919050565b7f4e487b71000000000000000000000000000000000000000000000000000000005f52602260045260245ffd5b5f60028204905060018216806122e757607f821691505b6020821081036122fa576122f96122a3565b5b50919050565b7f4e487b71000000000000000000000000000000000000000000000000000000005f52603260045260245ffd5b7f4e487b71000000000000000000000000000000000000000000000000000000005f52601260045260245ffd5b5f6123648261190e565b915061236f8361190e565b92508261237f5761237e61232d565b5b828204905092915050565b5f819050815f5260205f209050919050565b5f6020601f8301049050919050565b5f82821b905092915050565b5f600883026123e67fffffffffffffffffffffffffffffffffffffffffffffffffffffffffffffffff826123ab565b6123f086836123ab565b95508019841693508086168417925050509392505050565b5f819050919050565b5f61242b6124266124218461190e565b612408565b61190e565b9050919050565b5f819050919050565b61244483612411565b61245861245082612432565b8484546123b7565b825550505050565b5f90565b61246c612460565b61247781848461243b565b505050565b5b8181101561249a5761248f5f82612464565b60018101905061247d565b5050565b601f8211156124df576124b08161238a565b6124b98461239c565b810160208510156124c8578190505b6124dc6124d48561239c565b83018261247c565b50505b505050565b5f82821c905092915050565b5f6124ff5f19846008026124e4565b1980831691505092915050565b5f61251783836124f0565b9150826002028217905092915050565b612530826119a4565b67ffffffffffffffff81111561254957612548611d10565b5b61255382546122d0565b61255e82828561249e565b5f60209050601f83116001811461258f575f841561257d578287015190505b612587858261250c565b8655506125ee565b601f19841661259d8661238a565b5f5b828110156125c45784890151825560018201915060208501945060208101905061259f565b868310156125e157848901516125dd601f8916826124f0565b8355505b6001600288020188555050505b505050505050565b7f4f6e6c7920746865206f776e65722063616e20706572666f726d2074686973205f8201527f616374696f6e0000000000000000000000000000000000000000000000000000602082015250565b5f612650602683611ff6565b915061265b826125f6565b604082019050919050565b5f6020820190508181035f83015261267d81612644565b9050919050565b7f496e76616c69642074696d657374616d707300000000000000000000000000005f82015250565b5f6126b8601283611ff6565b91506126c382612684565b602082019050919050565b5f6020820190508181035f8301526126e5816126ac565b9050919050565b5f6126f68261190e565b91506127018361190e565b92508282039050818111156127195761271861222f565b5b92915050565b5f6127298261190e565b91506127348361190e565b925082820190508082111561274c5761274b61222f565b5b92915050565b5f61275c8261190e565b91506127678361190e565b92508282026127758161190e565b9150828204841483151761278c5761278b61222f565b5b509291505056fea26469706673582212207f7551f0fb3279da3d4b546219735db3305ac1ce65f44d91ceb597c7e02cbc1764736f6c63430008150033",
  "immutableReferences": {},
  "source": "// SPDX-License-Identifier: MIT\r\npragma solidity ^0.8.0;\r\n\r\ncontract VehicleTelemetrics {\r\n    struct TelemetricData {\r\n        uint256 fromTimestamp;\r\n        uint256 toTimestamp;\r\n        uint256 fromSpeed;\r\n        uint256 toSpeed;\r\n        uint256 vehicleId;\r\n    }\r\n\r\n    struct Vehicle {\r\n        uint256 id;\r\n        string registrationNumber;\r\n        string make;\r\n        string model;\r\n        string variant;\r\n        uint256 price;\r\n        address owner;\r\n        bool forSale;\r\n        uint256 totalKilometers;\r\n        uint256 totalLiters;\r\n        uint256 milage;\r\n    }\r\n\r\n    mapping(uint256 => Vehicle) public vehicles;\r\n    uint256 public vehicleCount;\r\n\r\n    mapping(uint256 => TelemetricData) public telemetricData;\r\n    uint256 public telemetricCount;\r\n\r\n    event VehicleSold(\r\n        address indexed previousOwner,\r\n        address indexed newOwner,\r\n        uint256 vehicleId\r\n    );\r\n\r\n    modifier onlyOwner(uint256 _vehicleId) {\r\n        require(\r\n            msg.sender == vehicles[_vehicleId].owner,\r\n            \"Only the owner can perform this action\"\r\n        );\r\n        _;\r\n    }\r\n\r\n    function addVehicle(\r\n        string memory _registrationNumber,\r\n        string memory _make,\r\n        string memory _model,\r\n        string memory _variant,\r\n        uint256 _price,\r\n        bool _forSale,\r\n        uint256 _totalKilometers,\r\n        uint256 _milage\r\n    ) external {\r\n        vehicleCount++;\r\n        vehicles[vehicleCount] = Vehicle({\r\n            id: vehicleCount,\r\n            registrationNumber: _registrationNumber,\r\n            make: _make,\r\n            model: _model,\r\n            variant: _variant,\r\n            price: _price,\r\n            owner: msg.sender,\r\n            forSale: _forSale,\r\n            totalKilometers: _totalKilometers,\r\n            totalLiters: _totalKilometers / _milage,\r\n            milage: _milage\r\n        });\r\n    }\r\n\r\n    function addTelemetricData(\r\n        uint256 _vehicleId,\r\n        uint256 _fromTimestamp,\r\n        uint256 _toTimestamp,\r\n        uint256 _fromSpeed,\r\n        uint256 _toSpeed\r\n    ) external onlyOwner(_vehicleId) {\r\n        require(_fromTimestamp < _toTimestamp, \"Invalid timestamps\");\r\n        telemetricCount++;\r\n        telemetricData[telemetricCount] = TelemetricData({\r\n            fromTimestamp: _fromTimestamp,\r\n            toTimestamp: _toTimestamp,\r\n            fromSpeed: _fromSpeed,\r\n            toSpeed: _toSpeed,\r\n            vehicleId: _vehicleId\r\n        });\r\n\r\n        uint256 timeDifference = _toTimestamp - _fromTimestamp;\r\n        uint256 distanceTraveled = ((_fromSpeed + _toSpeed) / 2) *\r\n            timeDifference;\r\n        vehicles[_vehicleId].totalKilometers += distanceTraveled;\r\n    }\r\n\r\n    function setForSale(\r\n        uint256 _vehicleId,\r\n        bool _forSale\r\n    ) external onlyOwner(_vehicleId) {\r\n        vehicles[_vehicleId].forSale = _forSale;\r\n    }\r\n\r\n    function buyVehicle(uint256 _vehicleId) external payable {\r\n        require(vehicles[_vehicleId].forSale, \"Vehicle is not for sale\");\r\n        require(msg.value > 0, \"Invalid payment\");\r\n        require(msg.value >= vehicles[_vehicleId].price, \"Invalid payment\");\r\n\r\n        address payable previousOwner = payable(vehicles[_vehicleId].owner);\r\n        address payable newOwner = payable(msg.sender);\r\n        previousOwner.transfer(msg.value);\r\n        vehicles[_vehicleId].owner = msg.sender;\r\n        vehicles[_vehicleId].forSale = false;\r\n        emit VehicleSold(previousOwner, newOwner, _vehicleId);\r\n    }\r\n\r\n    function getVehiclesByOwnerAddress(\r\n        address _owner\r\n    ) external view returns (Vehicle[] memory) {\r\n        uint256 count = 0;\r\n        for (uint256 i = 1; i <= vehicleCount; i++) {\r\n            if (vehicles[i].owner == _owner) {\r\n                count++;\r\n            }\r\n        }\r\n        Vehicle[] memory result = new Vehicle[](count);\r\n        uint256 counter = 0;\r\n        for (uint256 i = 1; i <= vehicleCount; i++) {\r\n            if (vehicles[i].owner == _owner) {\r\n                result[counter] = vehicles[i];\r\n                counter++;\r\n            }\r\n        }\r\n        return result;\r\n    }\r\n\r\n    function getForSaleVehicles() external view returns (Vehicle[] memory) {\r\n        uint256 count = 0;\r\n        for (uint256 i = 1; i <= vehicleCount; i++) {\r\n            if (vehicles[i].forSale) {\r\n                count++;\r\n            }\r\n        }\r\n        Vehicle[] memory result = new Vehicle[](count);\r\n        uint256 counter = 0;\r\n        for (uint256 i = 1; i <= vehicleCount; i++) {\r\n            if (vehicles[i].forSale) {\r\n                result[counter] = vehicles[i];\r\n                counter++;\r\n            }\r\n        }\r\n        return result;\r\n    }\r\n\r\n    function getAllVehicles() external view returns (Vehicle[] memory) {\r\n        Vehicle[] memory result = new Vehicle[](vehicleCount);\r\n        for (uint256 i = 1; i <= vehicleCount; i++) {\r\n            result[i - 1] = vehicles[i];\r\n        }\r\n        return result;\r\n    }\r\n}",
  "sourcePath": "D:\\Freelance\\vehicle\\smart_contracts\\contracts\\VehicleTelematics.sol",
  "compiler": {
    "name": "solc",
    "version": "0.8.21+commit.d9974bed.Emscripten.clang"
  },
  "schemaVersion": "3.4.16",
  "updatedAt": "2024-04-09T20:05:48.143Z",
  "networkType": "ethereum",
  "devdoc": {
    "kind": "dev",
    "methods": {},
    "version": 1
  },
  "userdoc": {
    "kind": "user",
    "methods": {},
    "version": 1
  }
}